:20000000004C0020FD810000FDC90110FDC90110FDC90110FDC90110FDC90110FDC90110EC
:1C002000FDC90110FDC90110FDC90110FDC90110FDC90110FDC901103BCA0110A4
:2000400000C500000FDD030100750085200F05F9A1FF0000C16F00006FA694037B057F0E3B
:200060000425000806BC263F3A07FF11000038403700A3FF8406002040007F64FF4040003A
:20008000030507B123FF0533058305414003FF06CC322306010002FF009F84020044C703D4
:2000A000FF04010263841000437F02B0045D4001400180FF180200DF7D838803FF00846006
:2000C000F135886014FF418C6013825C5000EF01A388FB0370F80C43EF09000063003180B5
:2000E0000100A9FF0000073F2E80073E16073802FA073F04180E7F0A480A0306B8457A06FC
:20010000FF181A0E3206BF4214F30F14F80B1C1014F00814BF461BFF121B7F5A1AFF2E8002
:200120001A7F04287F05063F8901277F1226FF5218FF4A40F540FC483054FB010048350061
:200140002044003101BF026401B00031037F02800370FE0031259C00001F6500FF0049715E
:200160000000099800FB004100F0FF6600003DFD6900308B0000D19E00FF007F5800002387
:200180005200F700877000B0A40000D3FF530000473E000057EF6B0000E901F05B68002BA8
:2001A000008102302903F0D808F000317C59BD7EF2020000282601B3CF07C20110623F0619
:2001C00081B5D03E6C047B8331C5A783930DA265978FBC3D00200175027D02F501E1C08752
:2001E00014007100B500F246C0D6F7BE898E88FF0925002526F72704386CC988B84E901569
:20020000558C241011D0FC6D5E02FF2E91F7E602FF444E9002FF1E0EFF0CD03700552000AD
:2002200031D80034E00034E80034B5F00034F80034003800335D0550A09705A1402382A1CC
:20024000C802B2A2C0A93002F0003138003440003448AA0034500034580034071AFA21FF73
:20026000030F0080002407987FE008003FAB48333170E703008006F1027F09009831D70031
:2002800020B232A00A027EA1007F0F3333002102A004F233B03004FF06027A002404FF071C
:2002A00009FB5DAC09FF07C1080F3450290C74DB04320C7F0D04A091303FAB9BD834027FFD
:2002C00013001002700EFF0C20652813F170077F07027A00DC09F0C813FF040C7409F474A2
:2002E00009F8C171E0935243130139B0C27F0403A74F17023B7AFF188891D391D380AA79B0
:20030000BBA85A023DDE510B93023F0EA8CBF1023F3206B1FF08FC0346BA080052764735E5
:2003200001FF2605FF0E07FF1009FF14BFFF0ADF718F9C0100200031C131C0E9BB16BF345F
:20034000FFFFE1DF0C03BE85C5823C909E017F03B10185EB02FF4A017F10010227BB14273C
:20036000B10A7F0A02FD287105FF1A107F0EB002FF140BFF0808F5FBB589993893FF8500F1
:2003800007A3CC7D1019A9FE31D93301F546E0320EE051400000125AFFD373DE34515FFF1E
:2003A000E377DF34F5CD00F48FE03021780000ABB562FFE393E1307900F031B563FFE37B8B
:2003C000E2344960FFE37F5AE334C500F0DDDD7E0617FFE5AD83E5344161FFE387E634BD73
:2003E000AA00F497E730D106F0AD05F49B56E83029798D7064FFE38BE934C93908F42A6521
:20040000FFEDC14920AD366A6BE4250E503A6CA4FFC00FB2E2FFE1B1ED30003182360880DC
:2004200080BDFEFFE00C3F0020003114AA00341C00342400342C003434AA00343C00344446
:2004400000344C0034540A00345C0034640034FFEF129B359A2000FFF0007D000000943F65
:200460000020880030598C007000F1004C00700400927F20010100005C2A0174000044FF2D
:20048000F000F30100000700B930380020EC01A80252903F0133340100052000313C003449
:2004A000FFF0009D0000016CDC02007200A135F700200300C4E98E00000F8FA00000FFF09B
:2004C00000FD000004283600200038C7002001010000310029FC3B0300200031FFF0007B2D
:2004E0000100000F00D0370020016100FFF00000616D00003FA4000035A50000003D0000AC
:200500000028360020FFF0001F743F0020000000FFF000000000000002000000F82B000068
:20052000000F08000000FFF0020000003C1800000001000000FFF00001000004FFF000007B
:2005400040000000002E002059040000440100208104000000010020A2040000A40100203A
:20056000C004000078010020DE040000C8010020FC040000E401002007050000F801002029
:2005800018050000080200202005000000020020280500000000001130050000EC0100204D
:0805A00037050000F001002006
:201000003C000000000000000000000034100000000000000000000001000000000000004F
:1C10200000000000000000000000000001000000000000000800000000000000AB
:20103C003400000000000000000000006810000000000000000000000100000000000000E7
:14105C00010000000000000000000000080000000000000077
:2010700030000000000000000000000098100000040000000000000001000000FFFFFFFF87
:10109000FF00000001000000080000000000000048
:2010A0002C0000000000000000000000C4100000040000000000000001000000FFFFFFFF2F
:0C10C000FFFFFFFF080000000000000020
:2010CC0038140000E41000008179000091A70110A1C2011009B2011041B80110A5BC0110C5
:0810EC0085BC01102F0000007B
:2010F400280000000000000000000000141100000000000000000000FFFFFFFF0000000093
:081114000800000000000000CB
:20111C00341400003011000065C2011069C101101BC2011091BA011005BC0110E5BB0110EA
:04113C00320000007D
:20114000341400005411000071C20110A5B6011099BF011045B60110B5BA011025BC01104B
:041160003300000058
:201164002400000000000000000000008011000000000000000000000000000008000000AE
:041184000000000067
:20118800240000000000000000000000A41100000000000000000000000000000800000066
:0411A8000000000043
:2011AC00240000000000000000000000C8110000000000000100000000000000080000001D
:0411CC00000000001F
:2011D000000000000C3F0020040000000000000000000000200000007010000030000000C0
:2011F0001C110000143F00200400000000000000000000000C0000003013000018000000D4
:20121000401100001C3F002004000000000000000000000024000000481300001800000057
:2012300000000000243F002004000000000000000000000010000000A01000002C0000002B
:20125000CC1000002C3F00200400000000000000000000002000000064110000240000005A
:20127000FFFFFFFF343F0020040000000000000000000000280000008811000024000000E6
:20129000FFFFFFFF443F0020040000000000000000000000580000003C10000034000000C3
:2012B000FFFFFFFF4C3F0020040000000000000000000000100000006013000018000000D8
:2012D000FFFFFFFF543F00200400000000000000000000001C000000AC110000240000004E
:2012F000FFFFFFFF5C3F002004000000000000000000000038000000F410000028000000BF
:20131000FFFFFFFF643F002004000000000000000000000054000000001000003C0000005A
:1813300018000000000000000000000040130000080000000000000032
:1813480018000000000000000000000058130000080000000000000002
:18136000180000000000000000000000701300000800000000000000D2
:08137800020000003C330100FB
:041384000100000064
:0413880000000E0053
:04138C0000000F004E
:041390003200000027
:041394000100000054
:04139800BC3D002038
:04139C00000200004B
:0413A0000000000049
:0413A400FDC901106E
:0413A8000000000041
:0413AC00000000003D
:0413B0000800000031
:0413B4000000220013
:0413B800503500208C
:0413BC00010000002C
:0413C000D43D0020F8
:0413C400080000001D
:0413C8000000000021
:0413CC00000000001D
:0413D0000000000019
:0413D400080000000D
:0413D8000000000011
:0413DC00000000000D
:0413E0000100000008
:0413E40000380020AD
:0413E80006000000FB
:0413EC0001000000FC
:0413F000D8350020CC
:0413F40000000000F5
:0413F80000000000F1
:0413FC0000020000EB
:0414000000000000E8
:021406002900BB
:021408000100E1
:02140A002400BC
:02140C003200AC
:02140E003300A9
:021410002F00AB
:021412000100D7
:0114140001D6
:08141800030000001433010081
:081420000000000000000000C4
:0414280000000100BF
:04142C0000000300B9
:04143000E999000036
:041434003C14000064
:041438003C14000060
:04143C0000000000AC
:041440009000000018
:041444009000000014
:0414480000000000A0
:04144C00D43D00206B
:04145000B3A2000043
:041454002000000074
:04145800E832010075
:04145C00A0310100BA
:0414600009C30110AB
:04146400BDA6000021
:04146800BFA600001B
:04146C0095C801100E
:0414700097C8011008
:041474000200000072
:0414780079310100C5
:04147C005C300100DF
:0414800074300100C3
:0414840044300100EF
:0214880008005A
:02148A00090057
:02148C0001005D
:02148E0000005C
:01149000015A
:041494000000000054
:041498000000000050
:04149C00000000004C
:0414A0000000000048
:0414A4009FA60000FF
:0414A800198F000098
:0414AC005596000051
:0414B000418C00006B
:0414B400A78C000001
:0414B800418400006B
:0414BC00B552000025
:0414C0004DA4000037
:0414C4000D760000A1
:0414C8000DC801103A
:0414CC001DC8011026
:0414D0000800000010
:0414D40024000000F0
:0414D80018000000F8
:0414DC0028000000E4
:0414E00020000000E8
:0414E4003C000000C8
:0414E8000C000000F4
:0414EC0034000000C8
:2014F0002DE9F04FDFF860B30F460446F80BADF1140D80F0F181DFF84C83B80F80F0A68156
:20151000B80880F09381DFF83883F80A80F0F580380B80F0CD80380907D2F80FC0F00E829D
:2015300027F0804705F0E0FC08E209F066F8814607F0F8FF002800F0B580082008F0D4FFB6
:20155000002840F0AF80802008F0CEFF002840F0A98004A803F092FC012803D10498002820
:2015700000F0A0805846C9300078002840F09A8000240125E0B208F005FE48B1867A3EB10B
:20159000857290F9090005FA00F0C0B207F0BEF9641C032CEED344460320207504F1B40048
:2015B00009F023F8484609F08FF9C948002632460168066050F8081CC64940F8086C04F15E
:2015D000380009F020F8304608F0D6F808F08AFDA168401A010BE069C1F1FF3282422CBFAD
:2015F00008444FF0FF30E06194F8200020B12069E169B1EBC02F25D908F05EF9314600B190
:201610002946081C1BD0D14840F6090101804680417B05F00F0221F00F010A434273017B3B
:2016300006F00F0321F00F0143EA010202733146416008F0B7FE418811F4406FFBD084F843
:201650002050E66106F0ACFFC14831460660022007F056FF022007F09DFA112002F01CFFE0
:20167000207818B96068483008F0EFFFB948007810B90E2002F010FF94F8210020B184F860
:201690002160052007F086FAB348A0612675B4F98C00B4F98E10884214BF0220072003F029
:2016B000E1FF02E0484609F00FF927F0080739E74446201D056807F00DF938B12846ED69A5
:2016D0006FF4807100224FF00073A847E06848B108F008FDE2686168801AC860000BC8609D
:2016F0000026E6609D4904F13800002208F08BFF27F400670220207514E708F07EFF0646C2
:2017100007F010FF4446216F0028884600F08880002900F085809249042504F1380000223A
:20173000257508F070FF304609F0CEF804F1B40008F05BFF08F0D6FCE060D8F810006060BE
:20175000D8F81000416AC90803D3036A294600229847012006F0B6F9824808F023FE6568F4
:201770004FF0010985F81590606805F04BF9D5F808A040F60A02D01F564600F1010C00E0CD
:201790001E46736833B119888A4203D0884218BF8C45F5D100217160727B09F00F0322F0A2
:2017B0000F0213437373D8F80C201288904225D06046904222D02C8E0CB3696305F1300298
:2017D000518095F83C0001F00F0320F00F00034385F83C3095F83D0009F00F0420F00F0019
:2017F00044EA000385F83D307260707B01F00F0420F00F0044EA0001717300E0E160504614
:20181000694602F083FB684608F0ACFD08F09CFC504608F0C7FD5146484607F071FE02E0FB
:20183000304609F051F827F4806787E001F09AFE40467030006808B927F002077EE0C0461B
:2018500050220020582200205823002008F0D5FE8146042007F0F8FBC0B1207DB0B140461C
:20187000006898B12569064608F03CFC801B2061000B2061A84202D240194008206140F6DF
:20189000C41181422CBFB0F5967F2161484609F01BF807F01FF888B1E56920466FF4807190
:2018B00000224FF00073A847404668300068002808BF47F0020701D005F016FB2046A46956
:2018D00000214FF080630A46A04727F0005735E014100440F974000008F08FFE22490E68C0
:2018F00046B306F1280106C90A234FF0E0450B40154008BF002B1DD106F1280191E8300016
:2019100006F1280393E8060006F12803AA43A14383E8060008F0D8FFB16869B1002D08BFBA
:20193000002C09D030692246B6F93C10B4682B46A04701E008F0C8FF27F480471FB1584632
:20195000394608F08AFE05B0BDE8F08F482D002000000460FE320100B13A0000D146000073
:20197000A998000001010E04D8220020BA482DE9F84F0025B94CB749056094F8E200002864
:2019900000F06381012800F02F81B54E02283CD0032840F05A8151F8250CD4F8B8100029F4
:2019B000A0F5C060C4F8D400B8BF49420028B8BF4042814226DA4FF08057D7F8A4014568B5
:2019D000B4F8BC0030214FF47F42082300903046A847D7F8A4014568B4F8C00004214FF425
:2019F000F802122300903046A847D7F8A401B4F8D070456820214FF440620A233046009746
:201A1000A847012584F8D8501AE151F8258C08F041FD2F4600B901273946924F3868002854
:201A3000FCD0B146012609F10409D9F82CA03E6009B108F035FDCAF30720C4F8BC0008F032
:201A500029FDAA4600B9B2463B68002BFCD0D9F800B0BAF1000F3E6001D008F021FDCBF397
:201A70008440C4F8C00008F015FDAA4600B9B2463B68002BFCD0D9F81C90BAF1000F3E60FC
:201A900001D008F00DFDC9F38120C4F8D000B8F5C061C4F8B81000F09C8094F8D80068B997
:201AB000C4F8D410D4F8C000C4F8C800D4F8BC70C4F8C470D4F8D030C4F8CC30D4F8D4005A
:201AD000D4F8BC30002854BF02226FF0010204F1C8010F6800EB40008018421000EB927244
:201AF00007EBA2000860D4F8C810C4F8C43000291CDD1E293CDDD4F8CC0030B93429B4BFB3
:201B100015391E21C4F8C81025E02A29BABFD4F8C8000B381E20C4F8C800D4F8C4003F2833
:201B3000B4BF401C3F20C4F8C4001FE0D4F8CC00032812D011F10B0FC6BFD4F8C8000B30D3
:201B5000301CC4F8C800D4F8C4000028C4BF401E051CC4F8C450032508E011F1150FC6BF60
:201B7000D4F8C8001530301CC4F8C800C4F8CC504FF08057D7F8A401B4F8C43030214FF416
:201B90007F424568364800930823A847D7F8A40104214FF400321123456831480096A847AF
:201BB000B4F8C860D7F8A40104214FF4F802122345682B480096A847D7F8A40120214FF499
:201BD00040620A23B4F8CC60456825480096A84701E084F8D85040F2FF50404502D8801CAE
:201BF00040452DD208202EE051F8251C1E4F4BF2F5204843060A3868C0F3814001280AD11F
:201C100007F03AFB06F0AEFC08F050FC3111C010484306EBE03694F8E50030B913480068E3
:201C300020F07F403618760801E084F8E5501048310C0660012741600E4D8760287808B900
:201C50000B2000E0052084F8E40000F0EBFCBDE8F88FC0462D400C402C500C40142F0020F7
:201C700000A00C4000800C40B43F0050102009403C600C404D3201002DE9F84F07468748FF
:201C9000DFF80C8235380068800880F0F28007F0F3FA864908310B6800251C17641C990DB3
:201CB0000AD2C0F13E0110F10A0F4FEAE101D8BF08218C42B8BF0C1CDFF8D8E1990E0FD2CE
:201CD000590E0DD37246143A1168C1F304211629A8BF20391268C2F30462162A0EDB0CE0AC
:201CF000684AD2F87C11C1F304611629A8BF20391268C2F30442162A00DB203A09199346CE
:201D1000162905DA11F10A0FB8BF6FF0090100E015215D4C5D4E01F01F0242F4F8522280FC
:201D3000326812F0030F18BF0125D20828BF45F002050FB145F00405424692F90740041B74
:201D5000052C04DA9479AC4208BF918870D00F28A0F10F0A2BDB0AEB0014A4F1F00A4FEA91
:201D70002A29B9F1070F88BF4FF007094E46062E88BF06265EF82670042404EB8604764626
:201D900034594FEA9508E41B04F0FF06EF0824BFC4F307273E444FEA550CAF0824BFC4F3AC
:201DB00007473E446F0828BF06EB146605E000264FEA95084FEA550CB1465EF829E05FEA60
:201DD00058070EF0FF0424BFCEF307273C445FEA5C0724BFCEF307473C446F0828BF04EBD6
:201DF0001E64B6B2ABEB0101AAEB09277E43002906F1800604EB1624D8BF012103F0FF034E
:201E100034264E43B1B259434FF6FF73B1FBF4F18B4238BF191C802889B2918005DA10F1B3
:201E3000800FB8BF6FF07F0000E07F20D0719571194800681F2910604FF0000008D340F21B
:201E5000FF128A4206D24908401C8A42FBD301E01F219180124F114E0F39090940EAC1003F
:201E700047EA0001C6F8FB1F0025C6F8FF5FBDE8F88F0C490C4F424608200F60921D1070DD
:201E9000BDE8F88F3C1100506E62084024220840DC2D00209C1300500820094035000940AC
:201EB00000E7A48030100940FDFDA400AC3F005001282DE9FE4F40F0EE80DFF810B2DBF80F
:201ED000DC00012840F0E4800220CBF8DC0008F00FF8012006F092FE5FEA000805D00120AB
:201EF000CBF8DC0008F010F8D7E008F0B2FB6C49029000200860012007F0A6F8012818BF52
:201F1000002003D1002005F053F80120654900900020654F08603868112008F0DFFA0028F8
:201F30000CBF00240124102008F0D8FA08B144F002040F2008F0D2FA08B144F004040B207D
:201F500008F0CCFA30B1624814300068574E016B308888470A2008F0C1FA002600B1012609
:201F70004FF0805A0AF5DC75301C04D02868504E016B308888474F48012606602868816909
:201F900044F0200088474C48066008F0A1FA00F001010191400814D2484808F041FA814645
:201FB000B9F1040FF8D0B9F1010F05D1DAF8D80142684248032190474149086820F0030015
:201FD00008600020FFF758FE2B683868986B8047019801280DD0B9F1010F05D1DAF8D80146
:201FF00042683648314690473549086840F0030008602C48066028684169204688470B205E
:2020100008F06CFA20B12868284BC16A188888470A2008F063FA20B12868254BC16A1888C9
:2020300088472448032206602349CBF8DC2000230B602868416B204688470128F9D138680D
:20205000042006F0DBFD044615481E490660386808688009FCD30098012802D1304604F0A4
:20207000A7FF08F01DFA082006F0C8FD07460298CBF8DC6008F024FC1348008804F0CCFD1A
:2020900007F042FF57EA040018BF4FF0FF3804E06FF0040801E06FF001084046BDE8FE8F16
:2020B0000C400940000222432C2009402630010022300100282008608001044300400340DA
:2020D000242208401410094048320100142F0020A40100102DE9F043044665480E46016865
:2020F0001F461546ADF12C0DBEB1B5B130784FF0010808FA00F001420FD01046002108F0F1
:202110008AFAA560666008F078FA5A4D81462878022804DB484608F0D7FB0020A5E00028BA
:2021300061D101F0ABFA5449086840F00200086007A808F04FF9514E5149707807AA0990C6
:2021500005F5847006F0A4FA4E4905F59E7007AA06F09EFA07A808F0C5F8192107AB307817
:20217000494A089005F1380006F082F9474A05F154001A2107AB06F07BF94549002205F1AD
:202190009000134605F01CFD4249002205F1B400134605F015FD404A05F124000421002395
:2021B00007F0BAF8B078012802D10E2002F02EFA05F1780007F08CFF05F1700007F088FF26
:2021D000002085F820002875E861072185F8D01185F82100314B1870A8600526E860304A2F
:2021F0002E612878AA6105EB8001401CC1F8D840C0B22870484608F067FB1FB9684607F088
:2022100099FF6F4638684FF4FA76E6602060B86941466062388A6175E082786800280CBF11
:2022300040F6C410002120611E48E06120622175A061F86800B1E061786900B12062B8689C
:2022500000B1A061782204F13000002104F026F904F14800002106F04FFF1349002204F1B4
:202270008000134605F0ACFC20460BB0BDE8F083D42108405022002000200940FC32010038
:20229000619F000091410000F97400005D680000899800005D9C0000117D00007F2D0020B6
:2022B000B13A0000AFA60000CBA500002DE9F84F0646634C3278DFF890B1DFF890A1DFF865
:2022D0009091664F207888460028324402F10502009261D0401E2FD0801E40F0A280304694
:2022F00007F0B2FF002800F09C8056484246314605F0BEFF002876D0B77B17F07F0F72D02C
:2023100059460D7835F002056DD1524807F07F03554600244A4637F07F072C6001681360A8
:2023300006D14D4908680122401C08605C4659E0491C03220160F9E7304607F07CFFC0B9C2
:202350004146304608F065F800286AD042463846314602F041F8002863D055462D68384608
:2023700007F0E8FF00285CD0594602203B46087052E03B4D42463146284603F0F7F900282F
:202390004FD052461368284607F04CFF002848D0A878C118022041E0304608F03AF8314DB1
:2023B00030BB4146304607F04FFF2F4F70B930480078002835D04146304605F0D3FE012830
:2023D00004BF3888286007F0DFFB2AE01D484246314605F04DFF30B1594602220A70388884
:2023F00028600322227021490868401C086018E042463846314601F0EFFF90B13B46524642
:202410002846598915680160384607F093FF002808BF012004D00220597B49194A4611603A
:2024300020704146304607F0A3FC10B1009805F06BF94146304606F0CCFEBDE8F88FC046C8
:202450003E3A0020802D00203F3A0020283A00202C3A0020303A0020343A0020603E002090
:20247000982D00201C3A00206A3E0020383A0020243A00202DE9F04FADF1240D079001F06D
:20249000FDF85F48007806F04FFC5E4D0024012806D90C3804D0401E0ED0401E09D006E08F
:2024B00007F08AFC022804BF01210C1C06D0696805E005211F2401E0032107246960524ACE
:2024D0001068C0F38150012806D152F80C0C0127020E07FA02F0044307F05CFF05F1440A86
:2024F000FF2253464018401E471C28607F1E03F8012BFBD1079A1268002602F0FF03FE2B83
:202510001DD0DDF81CC0964633460EF0FF07FF2F0ED0B84205D3B94203D80122BA4014428D
:2025300001D0022069E016430EF0FF020AF802305CF804EF5B1C0EF0FF07FE2FE7D10920F3
:2025500002F064F807980121A86005F1280006F0D3FD00274FF0010BB9462846804600F1DA
:2025700098050BFA07F0044216D1064204BF07F0FF0141F4C04104D01AF80700079951F877
:202590002010224801F004F9F8B24FF0FF3106F081FFC5F8009001E004202860D8F800006A
:2025B0007F1C2D1D8742DCD904A807F09BFE184C184A2078102104AB059008F10C0005F09F
:2025D00057FF684607F006FFCDF80C906A4660681149029008F1640006F05AF80F4951F8E0
:2025F0000D0C20F4F85040F4005041F80D0C0C4FC1F8FFBF4846C7F800B009B0BDE8F08FD4
:20261000AB2D0020002E0020B43F0050007FC76734330100099C0000418300000D3009401D
:20263000080009402DE9F843614C5A4D5A4EDFF870815E4F94F8E4100846401E0B2864D8DC
:20265000DFE800F07B2C43062343062343067664042907D001220A2945F8212C14BF022038
:20267000032004E0202045F8210C0120024684F8E200002045F8390C0827C5F8FF7FC5F809
:20269000F37F45F8392CBDE8F883052914BF09200620002784F8E400376075E094F8E17056
:2026B000383D0120002FC5F81B0004BF0620002102D00021F160032084F8E400032045F83C
:2026D000010C3160306880085ED294F8E4103348012703290ED000684568002160220523EF
:2026F00000914046A84794F8E400062814BF0A200720CFE70068456800216022052302204A
:2027100000904046A8470420C4E7FEE72548264F0026012506600E203D6001F0BDFE0220C3
:2027300006F038FA84F8E45084F8E360BDE8F883002038600C25786024E04FF08059D9F824
:20275000A0010168202088472C3D0F2045F8010C41F61D56C5F80360D9F8A401466800215F
:202770004FF4C0720723022540460095B047D9F8A401C66800214FF4C07207234046B04790
:202790000120386084F8E45004F1780007F02BFFBDE8F88339400C4038600C40A4010010B4
:2027B00000A00C402C500C4004800C4034600C40142F00202DE9FF4104466668A7680D4672
:2027D00007F01BFF3178012903D108F07DF8002090E00121317008F077F8287870706878AA
:2027F000B07068687060A868B060E868F06028693061287D3075687D7075A87DB075A869B8
:20281000B061287F3077687F7077A87F4FF0000843461D4686F82851B07786F82951C6F84D
:202830002080336375627563B562B56386F82C5086F82D50786801F0E9FE204602F03CF93A
:20285000204602F0B7FB70B92C480068C16838688847786801F020FE07F0CFFE357008F071
:2028700033F82C4645E0684607F03CFD0094387B234A0190B9686B4606F17C0005F0F8FD34
:20289000684607F0A7FD00941E4938696A46029006F1980005F0FCFEB07830B906F1CC00AF
:2028B000294606F029FC18483061707830B906F1E800294606F020FC1448F060684607F00B
:2028D00043FE01958DF800501149029406F582700A226B4605F074F9B969FA6906F13C0068
:2028F00007F0C4FC0B4A06F168000421234606F013FD20460090BDE8FF81C046D0010010C7
:20291000C92B000087730000B1A50000A9A500002D81000005A400002DE9FF470646880F7F
:20293000C0F09780002005F0CDF84B4807F03AFD012006F021FF494C40F60A09A4F80090E4
:2029500000256580207B05F00F0120F00F00014321736560607B4FF0010808F00F0720F0C0
:202970000F0047EA00013046617304F04BF8D6F808A04A462146D01F574600F1010C00E0AE
:2029900027467C6834B123889A4203D0984218BF9C45F5D179607A7B334C05F00F0322F0D9
:2029B0000F0213437B73236F33B1DA681288904224D06046904221D0338E03B3756306F1EB
:2029D0003002558096F83C0005F00F0320F00F00034386F83C3096F83D0008F00F0320F0DB
:2029F0000F00034386F83D304A60487B05F00F0620F00F0046EA00054D7300E0A560504681
:202A1000694601F083FA684607F0ACFC07F09CFB1348A06194F8210070B9404606F014FBF1
:202A300001280FD0787B08F00F0120F00F00014379730C4EA66105E005F0D0FD0028FBD039
:202A500007F0FDFD504607F0ADFC5146404606F057FD0090BDE8FF8701010E04482D002074
:202A7000F1140000C17C000050220020F8B507F023FD07463048012606703048002404802C
:202A90002F4804802F4804802F4804702F4804702F4804702F48254680E830002E4804601B
:202AB0002E4804602E4804702E4804702E4804602E4804602E4804802E4804702E480480C6
:202AD0002E4804802E4804802E48314A04802E48052104702D4802F8014B491E00F8014B07
:202AF000F9D12C482421491E00F8014BFBD12A49384605F03AFA294829490670384606F0E5
:202B10002AFE3846252106F08EFB26480470274B5C701C705C60244F3C707C70BC70FC702F
:202B30003C7123497C71204607F0A2FC2149304607F09EFCF8BDC0467036002072360020CA
:202B5000743600207636002078360020873600208836002098360020A0360020A436002068
:202B7000A8360020A936002090360020943600207A3600207C3600207E360020803600202C
:202B9000823600208436002086360020BC2D0020B42D0020C02C0020D6BE898E5B2A002031
:202BB00055555500AC3600207C3F0020FC3E0020F53100001BA600002DE9F84F8046D8F8F5
:202BD00008603068D8F80450076CDFF830B14764AB6B6A6C286C17F4F06F1946A0EB02090C
:202BF00034D1F8091ED2780974D3B1B196F821205846801D845C601E814294BF1C1C641E6D
:202C10004046214605F0F2FEA86B001BA86361D105F19800012107F020FD4046494606F098
:202C30002BF957E00029F8D0404605F0DFFE95F82D10A86311B900284CD101E00020A863F0
:202C500005F19800012107F008FD43E0F80A20D24FF0000A544602E0AB6B5B1EAB6393B1FB
:202C70004046012105F0C2FE3068446814F00F04C0F804A0F0D0286B401E2863686B401EC3
:202C90006863A86BE8B905F19800012107F0E5FC13E0306844680022202904F00F044260D2
:202CB000CCBF4FF0200A9A464046514605F09EFECAF120008145C8BF81464946404606F088
:202CD000DBF8EC77404605F02BF9726A12B1404621469047B8090FD3A96A69B10F46404601
:202CF00005F0A0FEA86238B996F820205946895C4046C91905F054F8BDE8F88F9830010046
:202D10002DE9F84316460D46044607F04FFA3046294607F093F93A4F002187E80300394814
:202D30000125057007F0C8FB814604F10C0007F07AF90146484605F018F93348057004F13C
:202D5000100007F070F920F07F41484606F003FD04F1140007F079FBDFF8B080A8F8000084
:202D700004F1160007F071FB294E308004F11A0007F06BFB2749088004F11C0004F04EFEF9
:202D900094F821002B4900F01F000870484607F048FC00242049284A08701046047005F07C
:202DB00009F90146484606F03EFADFF870E0B8F800103088CEF800403B68DFF864C0194C56
:202DD00040F2E24209184A4300EB400002F2E2428110D218CCF800101046226005F072FE10
:202DF0001149124A38680D703188157006F05EFC0F490220087006F027F8BDE8F883C04635
:202E100098360020AA3600205B2A0020723600207436002076360020AB360020A0360020BA
:202E300090360020A4360020A9360020A83600207036002078360020873600202DE9F04FDF
:202E5000ADF1140D02921D460191DDF83CB00E9C009007F0D2FB474A6FF0010800264FF0FD
:202E7000010992F8D0A1039009FA06F313EA0A0F71D0B5F1FF3F18BFAE426CD1F0B207F0D6
:202E900081F9002867D0877A002F64D192F8D01183F0FF030B4082F8D0314F468772009D13
:202EB000467292F8D2110560491C82F8D211019B03722E4F4760017A074601291ED0022976
:202ED00024D140F20361018290F90930C17C5B1D21F00F0103F00F030B43C3746379817CD9
:202EF00063F3C7018174C17CA37963F34611C174C17CE37963F30411C17407E00A20388270
:202F100097F90900401DB874A0687861BBF1000F13D097F909009BF800109BF80160144C70
:202F30004FF6FC75401D000240EA411040EA860005EA000144EA010000E00020B86102986F
:202F500000B17860506808B93868506003F0CCFF97F9098002E0761C032E85D3039807F0A9
:202F7000B3FC404605B0BDE8F08FC046AFA6000001000406502200202DE9FC4705466E68C1
:202F9000D5F8088037780FB1B76B1FB14FF0FF30BDE8FC8731630024F477171C74631BD0BD
:202FB00006F13C0907F029FB82466946484605F07EFA00281ED4504607F086FC9DF800007A
:202FD000316B0870306B736B7F1E00F10100306303F101007063E5D17078726B316B01282A
:202FF000A1EB0201316303D1F36828469847726B144659E0B763D8F80010086B40F40070A1
:203010000863D8F80010886B40F4FA608863504607F05AFC06F5947006F08EFC707806F5A4
:20303000947768BB07F0E9FA96F82D1069B1716B59B1B16B49B1B46307F046FC06F5947048
:2030500006F06AFC706BBDE8FC8707F03DFC716806F1E805284607F012F90028F2D0B463A3
:203070002846214607F00BF90028EBD0384606F053FC1027716B306BF777401A3063E1E7F9
:2030900007F0BBFA96F82D1061B1716B51B1B16B41B1B46307F018FC06F19800012107F0E1
:2030B000DCFA01E007F010FC2046BDE8FC8770472DE9FE4F0CAF1D468B465FEA02083E78A6
:2030D000009014BF4FF080494FF0005907F095FA0324DFF800A10190BBF1FF3F14D15246C0
:2030F0000098D2F8801007F065F950B9D2F88410009807F05FF900280CBF176FD2F88470F4
:2031100008E0D2F8807005E000985946002205F083FA0746002F56D097F83F0030F07F003E
:2031300050D05446D4F88000B84217D0D4F88400B84213D000982A463346394602F06AF817
:2031500000283FD0207D01283AD0207D042837D0214904F5847007F080FA31E0D4F8800063
:203170004B46002205F076FAD4F884004B46002205F070FAB8F1000F14BF1848184806F084
:203190008FF8B6B1D4F8800000224FF0807305F061FAD4F8840000224FF0807305F05AFA54
:2031B0003869C4F8F80094F8040140F0010084F804012DB1216F00982A46334602F02AF864
:2031D000832400E00424019807F07EFB2046BDE8FE8FC046502200200200004001000204AE
:2031F0000100010438492DE9F0470978022968D107F00DFADFF8D4A000218AE8030006F031
:20321000D5FF344D324C2F782168491C21604FB131480088884205D1304804F0FFFB00208E
:20323000216828702E48DFF8C090DFF8D480077827B32C4A12888A4220D12C49344F002255
:2032500001242C4BDFF8B4C0294D02702A4E09883C701B88A9F80010BCF800202B80DAF835
:203270000000328006F022FA40F2E247414625482B880A68047007FB0320086007F01CF9F9
:20329000044604F097FE0146204605F0CCFF05F0DBFD1D4C27780125414648463FB11B4B78
:2032B0001A6840F24136964284BF521C1A600288086840F2E24303FB0200086005F002FC24
:2032D0002570BDE8F087C0467036002098360020A03600207C3600207A360020BC2D0020D2
:2032F00086360020843600207436002080360020723600207E360020763600208236002028
:20331000A4360020A9360020A836002094360020AA3600202DE9F041424C464D8046C8F3D3
:203330008140401E02D0401E2DD028E0284620300168880C23D24FF4804020603A48D0F8AC
:2033500002204B0AC1F3033703F0800322F08F02134347EA0302C0F80220D0F80120C1F3DC
:20337000032622F00F0246EA0203C0F80130026801F0E70722F0E70247EA020102E04FF03A
:203390000041204601602D4E301D0068C0F3C0070FB94020A0624FF40070206406F0EAFF2B
:2033B00040F0300084F8C800C8F3815040B3401E03D0401E1FD002211EE0012005F044FEE3
:2033D00007460420394603F087FE042005F03CFE8742FAD1361F366826F07F4005F0ECFCE9
:2033F00012480068036807214FF06022300E98474FF4806020600321042003F06DFE06E05B
:203410000420012103F068FE094805F0D5FC2846094F006800F03F0084F8CB0F3868BDE8EE
:20343000F081C04640A00C400A600840B4010010BD3786006C1300502C200940AC3F005049
:20345000F8B5474C241F04F17005286800260746E0B1D4F88400F0B9D4F88000E8B1D4F831
:20347000801038690969884215D197F83F00400911D3D4F88000C06840880028F9D0D4F8F5
:203490008000C06840880128F3D006E004F58470022107F0E2F8002E5ED060683969884269
:2034B00054D1684604F088F958B1009848B1D4F8800030B9D4F8840018B9082005F026FA87
:2034D000F8BD082006F0D0FB97F83F0004F58476C0F3001028B9284606F00AF9C4F8800036
:2034F00004E0284606F004F9C4F8840007F1180003C81A49C4430B1F1C601A681042FBD1AC
:203510000A6810430860F869C04341F80C0CF86951F8082C104341F8080CF868044605F09C
:20353000BFFE2088A0F6020040B141F21E01401A04D041F6E671401A012803D80120214699
:2035500005F0DEFF4FF08041304603E004F584704FF4806107F081F8F8BDC046141004408C
:20357000542200202DE9F843424CA06FA56F04F1780900287BD00646F06840F603020827AC
:20359000531C02E040687F1EFFB260B15FB101888A4218BF8B42F5D131694CC830314CC1D8
:2035B00089C881E8890005F1280090E80C00002705F12806B84686E88001A96879B13E461F
:2035D0004FF0E24006EA020110EA03070EBF002932400340B5F93C10AE682869B04707F049
:2035F0000CF80646B4F98E00401C6FF31F30A4F88E00484685F83F8006F07AF8304607F05A
:2036100063F9B4F98C00B4F98E1088422FD16068D4F8D860D4F8DC7090F8A41000290CBFDC
:203630000520072002F01EF840462EB196F8A45005B9306886F8A48041462FB197F8A4604D
:2036500006B9396887F8A480814238BF011C61B1B1F1FF3F0BD0084A126804F1B400B1FB92
:20367000F2F106F001FDBDE8F88306F0EFFABDE8F883C04650220020F82D00202DE9FF470B
:20369000424C94F8E70000286ED10127384E84F8E770F07C84F8E6007568C4F810516846BB
:2036B00006F052FF002504F10C0001956B468DF80050304902952A4604F082FA2E4904F115
:2036D00030006B462A4604F07BFA2C4904F154006B4681462A4604F073FAB16838468847B3
:2036F000DFF8A4802648327D08F104030078254E1868C0F3815A22B1BAF1030F04D184F8C8
:20371000E170BAF1030F15D0BAF1020F12D0BAF1010F0CD0022005F07FFB042005F094FC37
:20373000012804D030683221B1FBF0F10DE004F0EBFF12E0022005F06FFBBAF1030F0CBF3E
:203750004FF47A7142F210713068B1FBF0F1484606F047FF484606F046FF40460068C00808
:2037700002D2284605F058FB00200090BDE8FF8738320100B3A600006D4B0000C96D000022
:20379000AB2D0020F82D0020B03F0050142F00202DE9F84F0E4607465FFA86F8300824BF4A
:2037B0003A484640DFF8F090394C4FEA8805A9F10100405907EA0602144086EA00013940E4
:2037D000B843C1F3006307F4E0210443B1F5E02F01D1600E14D307F4E020184310D004F47A
:2037F000E020B0F5A02007D0B0F5803004BF24F4003444F4A02403E024F4803444F4C02452
:2038100024484FF0010A0AFA08FBC0F800B006F0F4FE4946230A6D182B70220C6A70210E78
:20383000A97007F051F81D4C524604F1D00ADAF80010002002FA08F50D4218BF101C5FEAB9
:20385000000905D1F80D24BFC6F3805004F80800380E0DD306F0D1FE310E34BF0021291C81
:20387000DAF80020AA431143CAF8001007F02CF8B9F1000F05D0F80D24BFC6F3805004F81D
:2038900008000448C0F800B0BDE8F88F006000A0007F077FE020026001100840002002400E
:2038B0002DE9F041414C0546207800287AD0B4F98E00B4F98C1088421DD004F170012846C0
:2038D0000E4605F051FB70B9D4F88010284606F071FD28B906F10801284605F045FB01E087
:2038F000D4F8800038B1B0F93C100A224FF0E043284600F075FB06F080FE804604F1D8002B
:203910000168A94219BF00264660002606602078401EC0B22070A8BB6560207D02280ED14D
:20393000082004F0F3FF404606F0CEFF05F148004FF0FF3106F0A3FC06F05FFE804604F5CC
:20395000847006F084FE04F1380006F054FE04F59E7006F07CFE04F1540006F04CFE04F181
:20397000900006F038FE04F1B40006F034FE04F1240005F071FF0C480078012802D10E2036
:2039900000F08AFD606805F14807854208BF6660404606F099FF384606F055FE05F18000EE
:2039B00006F019FEBDE8F081FE320100502200207CB50546084603F0FBF8364E024618215C
:2039D000304605F02BFB06F009F93449103909684C6840F2FF32002380B22C210090304658
:2039F000A04706F0CFFC1C210246304605F016FB06F0E6F802461421304605F00FFB06F052
:203A100017FA02461021304605F008FB284603F09BF802460C21304605F000FB284606F06B
:203A3000EFF91D4C400040F020002070284606F0F3F940F010002070284605F0ADFE02468F
:203A50002821304605F0EAFA284606F0FDF9400040F06000E070284606F002FAC00040F0F4
:203A7000800004F8080C284606F006FA800040F47C40A4F89300284605F086F90246082150
:203A9000304605F0CBFA4FF48000A4F2091108607CBDC04600A00C4049A10C40B4010010E5
:203AB00038B5314C0D46A8084CD2E8085AD306F019FBA060606804F170050146286878B112
:203AD0000069054651B18D4208D0696AC90803D3036A04210022984701206875294661603E
:203AF0004868224900780860022005F095F9112000F08CFD01201E4D2075287810B90E20B4
:203B100000F084FD60684168886808B9C86810B1184806F047FC1849184D07200023086000
:203B3000296817482B606A686B60164B2A68A36140EA02011A20296006F061FD192006F0F3
:203B50005EFD38BDFFF70EFD204600F17801096811B903F0C9F938BD00F5847045F002012E
:203B700006F07BFD38BDC04650220020D0210840FE320100510007060000046014100440A6
:203B900002000040292900002DE9F0471E46904689460746B6F1FF3FADF1480D09D046B136
:203BB000314909AB6846324606F086FE0220694601E0002103200C918DF834002B4DCDF89E
:203BD0003C902C68CDF8408006F072FEEFF3118A2025E4190B9085F311884246494638468A
:203BF00005F0EAFE031C33D1002E04BF8AF31188002036D006F058FE0B99064609A88861B2
:203C1000204609A906F04CFE0B9806F045FE9DF834000024022802D10C9806F039FE8AF328
:203C30001188304606F030FEEFF3118385F311880C9810B106F024FE0C940B98846183F39F
:203C500011889DF83400002814BF0E9B231C07E00C9818B106F014FE00200C908AF31188E1
:203C7000184612B0BDE8F0878D9100005C330100F8B506F00FFC03F003F806F029FC054648
:203C900005F00C000C2853D0E80826D205F060FA2A4E376804460120014605F0BCFE316874
:203CB0006143884219D22649F020B0FBF7F0241A887C18B1C868A04238BF041C214D214681
:203CD000284606F0D9FD284606F0D2FD0120FEF7EFF8284605F060FE2CE0280928D21A4810
:203CF00006F09EFB0428FAD0184A690905D220B11168104621F0010103E01046016841F0FE
:203D100001010160983210684FF0805540F003001060D5F8B8018169202088470C4CD5F893
:203D3000B8712068B86B804701202060206801E006F04FFC06F0B4FBF8BDC04654330100A5
:203D500038320100202F0020004003408C2108402C2009402DE9F04707467D68BE689046F1
:203D70008A4606F04AFC81463068006B00F48071287800B119B1484606F0A6FD57E005F505
:203D9000827006F032FC0024EC77C5F820A06C623168086B40F480700863484606F094FD7B
:203DB00005F2291005F0C8FD4146384604F03AFE05F22919A862A8B93846414603F0F0FF4D
:203DD000A878D0B9A96805F1CC0006F058FAE8B1AC621020E8773146284601F089FD05F286
:203DF000291022E006F009FC3268916B41F02001916306F069FDA87810B12046BDE8F087E2
:203E1000A96805F1CC0006F03AFA10B9686ABDE8F0873846414603F0C3FF1020AC6231466F
:203E3000E877284601F064FD484605F075FD4FF0FF30BDE8F08770472DE9F04707467D788E
:203E500005F03F057E19B079884600F03F0A504604F01EFE2A480078BC1C06F10809401E84
:203E700033D0401E42D1254E307838B9484606F070FB2449098805F008FC08E0484606F060
:203E900068FB2149098805F011FC002030702846494602F0C5FF484600F0A2FF387800F080
:203EB0000300032822D12078641C50B1401E04D0401E1BD103F0FCFB18E0204604F0B6FC4E
:203ED00014E0204603F0D8F810E0387800F00F0005280BD1222D09D13846214603F098FE76
:203EF00020B1204622214A46FEF70AFF41463846524604F083F8BDE8F087C046AA3600207C
:203F100070360020763600207436002080B50288A2F602073FB143F20502BF1A14BF0020DD
:203F300090F8240000E0C07B2C4AD2F88832401F0B6048D0401E3CD0001F30D0801E24D0B3
:203F5000C01E18D00F380CD0D2F890024860D2F894028860D2F8BC0220F0784040F08050CC
:203F70003AE050694860D06A8860506C20F0784040F0704030E010694860906A8860106CA1
:203F900020F0784040F0F04026E0D0684860506A8860D06B20F0784040F0C0401CE090683A
:203FB0004860106A8860906B20F0784040F0A04012E050684860D0698860506B20F078401E
:203FD00040F0405008E01068486090698860106B20F0784040F02050C86080BDC4100050BC
:203FF0002DE9F8430446994690460E1C44BF0020011C5BD406F02DFB0546314680222046E0
:2040100004F00AFB071C04D097F83F1031F07F0106D1284606F054FC02200021BDE8F88333
:204030004FF0E0400A2107F1200640EA090941EA080896E8030008EA000019EA010608BF0D
:2040500000281CD0284606F03BFC07F1200003C804F1780604F1780508EA000809EA0109E2
:2040700086E8000395E80C0007F1200696E8030007F120059943904385E8030013E00C4814
:20409000B968884202D0B9682167B86004F1680080E80003284606F013FC04F148004FF0DB
:2040B000FF3106F0ECF8783494E80300BDE8F88355750000D0B501460888A0F6020058B1D4
:2040D00043F20402801A04D0401E12D191F8247000E00227CE6901E0CF7B4E694EB1304632
:2040F00044F238014FF6FF72052305F0EDF8052801DB0120D0BD06EB800632681F4B781FC0
:20411000C2F3034417D01C49401E0FD0001F0BD0801E07D0C01E0AD00F381ABF191C6031FD
:20413000091D04E0091F02E0083900E00C390868C0F3834003E019460868C0F303200F2850
:2041500006D0A04216D922F4702242EA004210E07F1F0AD07F1F08D07F1F06D00F3F1CBF17
:2041700022F4702242F4802203D122F4002242F4E02232600020D0BD041100502013005044
:204190002DE9FE4FDFF8C08098F8D10100284FD0002501212C4698F8D12101FA04F0104270
:2041B00003D1641C032CF6D342E098F8D1211020A040104218BF0D1C06F01FFA98F8D1210C
:2041D0001121A1408A4388F8D12106F07DFBE0B205F0D8FF60B3877A57B390F9099019490F
:2041F0000768012D446851F82960019710D0017A02290DD100F1100191E8000C00274FF0AB
:20421000805317EA0B0703EA0A0108BF002901D101F0AEFB012D04D0009600224FF00063F8
:2042300003E000224FF00073009201984946A04798F8D10120B108F59E70002106F00DFABA
:20425000BDE8FE8F94300440502200202B4A2DE9F04180460124A2F13000046024480768D9
:20427000002FFCD02649234DC0200B1F28601868800806D253F8040C1F4B000C40F0F000F1
:204290001870002010600E68304600F0C3FB40463146FFF78DFB1B49886D40F21E226FF3B4
:2042B0001F40824215D90868020E12F00F0F02F00F01C0F3034018BF491E072805D00628D5
:2042D0000EBF0720801C00F00F0041EA00110E4801703046FFF71EF80C480068C1680220B3
:2042F0008847402028600A4F3C60BDE8F081C0469402224300600C405662084040100940A6
:20431000B43F0050BC12005002600840A001001094046042F8B506F07AF92B4C294D284923
:20433000264B2A4E27782A6809681860022F08BF8A4221D0032F01D0DFB917E08A4218D16E
:20435000307801280AD0032813D100203070012005F0FEFB012005F009FC07E00220307000
:20437000002005F003FC002005F0F2FB05F0CAFF0BE005F0F1F908E0012005F0F7FB05F0AA
:20439000C1FF002737700321217004462868401C286005F00BFF06F08FF8214604F0F0F94C
:2043B00005F0F6F804F050FD094C0A492068096806F0E2F8206005F08AF9F8BD203A002031
:2043D0002C3A0020283A00203E3A00203F3A0020183A00201C3A00202DE9F04104461646BF
:2043F0008846ADF1200D684600F0C2F90025071C03D007F11600B04202DD012D01D042E0A0
:204410000125BDF804000DF106062080304605F0A3FC2073207B70B91D493046082205F0A7
:20443000DBF8002818BF00202ED131460A68A01C026049684160174E08EB0701304602F05A
:20445000CBF9F8B130468378C178877A427A067A5943807B9DF8163042EA072202FB06111D
:2044700013F0030F084460814FEAA301628961734FEA02124FF00001628118BF01216089FC
:20449000A17300B90025284608B0BDE8F081C046E42D0020EC3D00202DE9B043044606F015
:2044B000ACF881462748221892F8EF10491ECFB2002F82F8EF703FD1254901EB84014A889E
:2044D0000C78904634F07F0718D1E1090FD24FF0805000F5DC75D0F8B8018169104688472F
:2044F0002868416B404688470228F9D11EE000EB8800D0F804110020884717E04FF08055DF
:20451000D5F8B801016A10468847D5F8B801816A40468847D5F8B801016B404688470A4915
:2045300001200860094908688008FCD304F03F00132801DAFFF7B0FF484606F0C5F9002079
:20455000BDE8B083142F00202820086028200840F82F01002DE9F84F984691468A4605467B
:2045700006F04BF8834604F0B9FF0AAF061C40D0244C04F1B40006F038F8C6F80CA0B4F93C
:204590008C0086F83E90401C6FF31F30A4F88C00C6F808803561B4F88C00B08797E806002E
:2045B00002230B431849002040EA020720223A40194006F1180383E8060006F120020146CC
:2045D00082E80300716331634FF0FF37B763802386F83F3004F1700085F8A410314605F0D5
:2045F00098F8206F864201D102F07EFCB6F93C4001E06FF00104584606F066F92046BDE818
:20461000F88FC04650220020FFEFFF9FF8B5064605F0F3FF264D0746711991F8EF00421CDF
:20463000002881F8EF203ED1224C04EB8604267806F03F00132801DAFFF7E8FF648836F0EC
:204650007F0018D1F0090FD24FF0805000F5DC75D0F8B8014169204688472868416B2046B1
:2046700088470128F9D11EE005EB8405D5F804110120884717E04FF08055D5F8B801C16964
:2046900020468847D5F8B801416A20468847D5F8B801C16A20468847074901200860074960
:2046B00008688008FCD3384606F00EF90020F8BD142F0020F82F0100282008602820084008
:2046D0002DE9FE4F2748284C002700F180010226ADF104098046BB46009100F184010191B8
:2046F00059F8045F286878B32868806905F07CFB824628680023524603F0ACFF1AF00A0F82
:2047100008D1BAF1000F1FD0286847F48047C8F8880019E028688169236821F0020123EA0E
:204730000100124B20602868C16954F8082C22EA010044F8080C296803F1080004F0E9FF8B
:2047500047F00207C5F800B0761EC9D127B108F58470394605F081FF00F008F9FEF770FE5D
:20477000BDE8FE8F5022002014100440C0220020F8B52E2A0E46044611DB3078711C671CB4
:2047900020700B8889783B80321DB9701188251D29802148A1880088721C884201D00020CB
:2047B000F8BD1778B01D4168A31D0E250268596017F01E071A600FD1E078C0F3011001284E
:2047D00018BF022808D106F10E0104F10E000A684968026016254160715DE0780D4B6D1C7E
:2047F00000F00F0710F00F0FA175EDB21F7007D004F1170071193A4600F08EFBED19EDB236
:20481000761931681B346D1D32792160E8B22271F8BDC046653A00203C3A002010B5284CE5
:2048300081782378002247290ADC47293AD0403944D0491E1BD0491E13D0C91E38D01DE0CD
:20485000503929D0491E21D00F3902D0103917D014E0022B32D0B0F80310401D03F016FCE4
:204870002BE0032B2AD005F0CDFD032104E0022B24D004F0C7FD022121701EE003221DE081
:20489000B0F80310401D04F0CFFC16E0B0F80310401D02F0E1FE10E0B0F80310401D03F057
:2048B00093F80AE0B0F80310401D04F00DFA04E0B0F80310401D04F085FB0246104610BD85
:2048D000963F0020264838B560300468B4F1FF3F08BF002405F0BDFB2248234B00250121E2
:2048F0001038056003F15C0001601448016003F0B7F91348006820B1124800682046FFF738
:20491000A5FC114811490560114C0A686FF35B4244EA020008600F490868C0F30130012893
:2049300006D10A680C48104040F400320A6008600A4908680028FCD138BDC046082204431E
:2049500080012843000120438C210840482003400000390104000940FFFFFCFC0C00684224
:20497000BC1200509404604200600C402DE9F047DFF898A0DFF89880002501244FF0020944
:204990001126E8B205F0FEFB071C39D0B87A012836D197F90900AAF10401113004FA00F052
:2049B000C2430A604A681043486097F9090004FA00F0C0B205F058F907F11000002104F06F
:2049D00085FB0146812909D1B86918B1002104F07DFB0146812908BF87F80A9081290FD0AB
:2049F000A8F1180000F2D11297F90910137806FA01F100F59E7019431170002105F02DFEDA
:204A10006D1C032DBDD3BDE8F087C0460C1004406822002070B5234C234D0646B00E11D220
:204A3000700E0FD3802020744FF6D801A4F85110207001F05DFED0352868C0F30420162831
:204A500006DB04E02868C0F30460162800DB203800EB2670401C162805DA10F10A0FB8BFDE
:204A70006FF0090000E01520104D00F01F0040F4F850A4F859002868800803D20C4900206A
:204A9000086001E046F040660A49F00EB50E80F0010000F00100086085F0010000F001009C
:204AB000886070BD15620840B81200500000094094042A4300002043FEB54FF080564768D0
:204AD0008468D6F8D001C16820688847216821488A6B1040886340F2F27120681E4D41646C
:204AF00094F82000295C94F8210040198079084321684863684605F070FDD6F8D001397F90
:204B100005EB810146680B6ABA69797F206805EB810189691943BB7F05EB83052B6B0B43F7
:204B30000199B0472168C86A40F01000C8622168086B40F001000863A07D0027FF2802D0DA
:204B5000E07DFF2800D11FB1086B40F440400863FEBDC0460DF8FFFF8C3001002DE9F041C6
:204B700005F04BFD254D214E804605F1E000007848B93446A168022088470746102004F00D
:204B90003DF86FB31AE005F0A3FCC0091AD218480068C4681748342101220023A04788B15D
:204BB00002F070F934460020A16885F8E000022088470746102004F021F88FB1A1680320A3
:204BD00088470DE00C4800683221B1FBF0F101B901213035284605F004FD284605F003FD65
:204BF000404605F071FEBDE8F081C04638320100A401001000A00C40F82D0020142F0020EB
:204C10002DE9F0410E46071C14BF002E002040D0224C4FF0FF3104F12800804605F02FFBB6
:204C30003078FE2811D022680021FF2808D082422AD31F2828DA04EB8000D0F898501DBB0A
:204C5000491C16F82100FE28EFD1002038607860B8603078FE2818D00125FF280FD01F28F9
:204C70000DDA7B6804EB800105FA00F0C1F898701843094978603268384603F0F3FD16F8AC
:204C9000040FFE28E9D100E00027404605F0DDFC3846BDE8F081C046007FC767002E002021
:204CB000F0B520480127F84201D003F013F9204D204F214EBD4206D203CD0478A400345906
:204CD000401CA047F6E71D48002800D08047164D164FBD4202D210CDA047FAE7F0BD03256B
:204CF0001BE0416808300A1C2A400BD11A1C2A40AB4305D0046804300C600431043BF9D1AF
:204D1000131C05D0047801300C700131013BF9D1021C2A4001D0A84304300368002BE0D15F
:204D30007047C046FFFFFFFF000000000000000040050000A8050000F004000055C5011099
:204D500010B51F4C00213C220823204605F08CFD0120A0611B480022214605F081FD1A4C9E
:204D700000213C220823204605F07EFD0220A06116480022214605F073FD154C00213C2254
:204D90000823204605F070FD0320A06111480022214605F065FD104C00213C220823204647
:204DB00005F062FD0420A0614FF4407020620B480022214605F054FD03F0DAFA10BDC04639
:204DD000482C0020CD9C00000C2C0020617D0000842C0020F5500000D02B0020297B0000BC
:204DF0002DE9F041224D2978002936D01C49D1F8008005F0AEFB1F4C1A4906460022284627
:204E100023680D880270184605F058F916490F7840F2E24C0CFB0565DFF850C0012F15D099
:204E3000A6EB0806B04205D360460168A94214D005600EE040F24130984284BF5B1C23600E
:204E50000D48032141700170BDE8F0810A70604605602260284603F035FEBDE8F081C046DA
:204E70009836002074360020A9360020A4360020A836002094360020FC3E00202DE9F84FD2
:204E900081460020C9F80000684602F095FC204FDFF880A000264FF0FF354FF0190B34464D
:204EB0008046E0B205F06EF9B8B1837AABB1017A0126022915D07968CA8A406909698918C9
:204ED00097F8D2210BFB021104F0EAF8DAF80010B0FBF1F0854288BF051C641C032CE0D352
:204EF00000E00025B8F1000F04D0012E05D0B8F1010F05D0012E04D005E00098854200D95F
:204F1000009DC9F8005046EA0806F0B2BDE8F88F50220020F82D0020002A4AD05FEA000C57
:204F30008B071CD1830722D1102A08D370B4103A78C978C0103AFBD270BC103238D0042AAE
:204F50002CD3082A05D30C2A24BF08C908C008C908C008C908C092072AD0920F22E00B789B
:204F70000370491C401C521E22D08B07F7D1C30714D18307D8D0121F12D308C903801B0CBF
:204F90004380001D121FF8D20AE008C903701B0A43701B0A83701B0AC370001D121FF4D29C
:204FB000121D05D00B780370491C401C521EF9D160467047B0B5456884682349607DA27D29
:204FD000ADF1180D40F000400090207D0027FF2A41EA000001904FF0020002D0E27DFF2ABA
:204FF00000D13FB1E37DA07D1943039140F0004002900420FE214DF8201005F154006946C0
:20501000FFF7FEFD2866002808BF381C1AD0617D0F2203F0E9FE286E217D102203F0E4FEB0
:20503000A17D3846FF2902D0E27DFF2A00D140B1286E112203F0D8FE286EE17D122203F0D3
:20505000D3FE012006B0B0BD0000C0A02DE9F0474FF02009EFF3118889F31188204CA06812
:20507000012105F0F9FB4FF0010A0027226861696569A4F81CA0891A2268E783461B801A98
:20509000884228D388F3118838462D18361A5046294605F0DDFBB042F7D9EFF3118889F389
:2050B0001188E18B012903D13846294605F0D0FBB0F1FF3F06D0A169801B814238BF081CF8
:2050D000291801E0A069411905F0BEFBA4F820A0A783256000E0A78388F31188BDE8F08748
:2050F0007801002070B505F075F81E481E49FFF787FD1E4C206010B911A005F0A1FB1E4DD9
:205110001B4805F099FB1B481E2103F0F5FD2668042004F0F1FF002200B9012204213046DD
:2051300003F0BCFB2868002201211346FEF72CFD4008E5D3206804F05FFC05F079FBDFE764
:205150004572726F7220696E697469616C697A696E6720626F617264204C45442070696E86
:20517000730A00C08C2D0020043F0020F42D0020A0860100E4310100FC2D00208B4208BF4B
:20519000824204D90B1C021C002100207047002B08BF002A0BD10B1C021C00210020002B78
:2051B00008BF002A1CBFC943C04305F07BBAF0B51C4615460B46024600200021B4FA84F676
:2051D000202E04BFB5FA85F62036B3FA83F7202F04BFB2FA82F72037F61BB6F1200727BFB4
:2051F00005FA07F400257F42B4403EBF25FA07F73C43B540A34208BFAA4201D3521BA34180
:20521000404149416D0845EAC4756408761EF1D5F0BD70472DE9FE4F0190214800F17006A8
:205230003768994692460D460024804600E03F6897B3BD42FBD1D7F800B00198394605F0A3
:20525000B9F818B3384600224FF0805303F002FA06F10800B9F1000F00900ED0384600225B
:205270004FF0807303F0F6F9286998F80431C8F8F80043F0010088F804013046394604F05A
:20529000F7F80098394604F044FA641CBAF1000F18BF5FEA0B07CED12046BDE8FE8FC0461D
:2052B000502200202DE9F8438146EFF31188202080F311881E4D1A4C184F012605F11C00FC
:2052D0000660A4F114000660F86A016A14208847D9F81000810C14BF000C042020603868E8
:2052F00002682321002090470E480F4F0660386800280CBF311C03210C4807680FB141F027
:205310000401183C206820F4E02040EA014020602E6088F31188BDE8F883C0468401001040
:2053300018200940800224434433010048330100000024432DE9F04106467468B56805F017
:205350005CF98046A06A58B928688169090907D2006B400A04D2404605F0B6FABDE8F081D6
:2053700004F5827005F041F900274046A76205F0ABFAA97D3846FF2902D0E97DFF2900D1B6
:2053900018B12046294600F0B3FA05F036F92A68916B21F0200191632A68116B21F48071D6
:2053B000116305F091FA04F2291004F0B5FA606A216A091A21622369626A30469847BDE8CA
:2053D000F081704730B5ADF1240D02F0F1FF1B4D284604F0E1FD44F6206068600024AC7590
:2053F0006C752C751648EC752946A861204602F0FFFF1549086010B90AA005F021FA684697
:2054100021462422082305F00FFA0E4C01216A468DF81810204605F003FA0C48046009B004
:2054300030BDC0464572726F72206F70656E696E6720746865205541525400C0E82C00209E
:20545000C0C62D002C2D0020CC2D0020D02D00202DE9F047804608AF38881E460B4620F08B
:20547000030437460C3407FB04F1914230DC00F0030C1C46CCF1040C17B300EB0C014FF053
:20549000000E4FF0020A01F10809754605FB09F6321982F804E051796EF301015171537982
:2054B0007F1E05F101050CEB000111446AF38303537101F10801D08004EB06031160E5D1E5
:2054D0001C60C8F80040034804600021C8F80410BDE8F087242B002080B5194919480F7892
:2054F00002782FB3012F06D11749900000EB02100C39085880BD022F06D11449900000EB8A
:2055100002100C39085880BD032F06D11049900000EB02100C39085880BD042F06D10D4956
:20553000900000EB02100C39085880BD002080BD0949900000EB02100C39085880BDC046C8
:20555000823F0020833F0020042F0100D0320100BC320100E4320100902F010080B51A49E3
:2055700018480F7802782FB3012F06D11749900000EB0210091F085880BD022F06D11449BA
:20559000900000EB0210091F085880BD032F06D11049900000EB0210091F085880BD042FC2
:2055B00006D10D49900000EB0210091F085880BD002080BD0949900000EB0210091F085898
:2055D00080BDC046833F0020823F0020002F0100CC320100B8320100E03201008C2F0100CC
:2055F00080B5194919480F7802782FB3012F06D11749900000EB02100C39085880BD022FB9
:2056100006D11449900000EB02100C39085880BD032F06D11049900000EB02100C39085843
:2056300080BD042F06D10D49900000EB02100C39085880BD002080BD0949900000EB021012
:205650000C39085880BDC046823F0020833F0020002F0100CC320100B8320100E032010062
:205670008C2F0100F8B5054604F0C7FF1D4C064604F582710878A84304F1D80508702868C6
:20569000002808BF002706D02868803004F012FE002700B10127686838B1803004F00AFE65
:2056B0000025384318BF01252F4694F80401A0B9012F12D0D4F8F80078B1416A89080CD3C4
:2056D000056A304605F000F9D4F8F80002210022A8470020C4F8F800F8BD304605F0F4F80F
:2056F000F8BDC0465022002070B506467468B568206E04F081F929681A488A6B10408863C4
:20571000002020703046FFF715FE304602F008FC2968C86A20F01000C862296812480A6B71
:20573000104008636868FEF7B7FE04F17C0004F062FF04F1980004F08AFFA07818B904F176
:20575000CC0004F080FF607818B904F1E80004F07AFF04F5827004F03EFF04F1680004F09A
:205770007BF870BD0DF8FFFFFEFCFFFF2DE9F041804616460C46ADF1200D6846FEF7F8FF5E
:205790000025074640461FB107F11601B14202DD012D01D027E001259DF81620BDF8041090
:2057B0009310018012F0030F83704FF0000118BF01219DF80120C170C2F341169EB9E15DED
:2057D000E41901716278A61C42713288831D1A8021790172017A262904F10500A8BF0025AA
:2057F00001DA03F035FD284608B0BDE8F08108B503F09AFA0B280EDC0B281AD0002833D0B4
:20581000401E2ED0401E29D0401E24D0401E1FD0401E1AD00BE00C3811D0401E12D0401E30
:205830000AD009380BD0C01E06D0401E01D0002008BD42F2526008BD41F2533008BD41F241
:20585000123008BD41F2523008BD42F2506008BD4FF4195008BD42F2306008BD42F2206060
:2058700008BD41F2503008BD41F2103008BD70471E49820010B502EB0010091D0C5804F0C3
:2058900083FEE17B41F00101E173E17B21F00201E173A27B012161F34102A273A27B61F374
:2058B0008202A273A27B61F3C302A273A27B61F34512A273E27B61F3C712E273E27B61F387
:2058D0004512E273E27B61F38612E273E27B61F30412E273FF2222836FF00202A277E27BB3
:2058F000A06261F3C302E27310BDC046D832010038B50C46054604F080FE2268916B21F0B7
:205910002001916304F0E0FF286E217D012202F099FB286E217D012202F0C0FF286E217D76
:20593000002203F061FA286EA17D002203F05CFAA878012806D005F1CC004FF0FF3104F084
:205950009EFC03E0216888690009FCD2286E217D102203F049FAA17D0020FF2902D0E27D36
:20597000FF2A00D118B1286E112203F03DFA38BDF8B5074604F041FE04467FB3B87A68B376
:2059900097F9092003F098FF012303FA02F1CDB248B1144E113203FA02F0326882433260A3
:2059B000C34346F8043C0020B8610346BB723B7207F110063B60024686E80C000A4A7B605D
:2059D00002F5E87003781943017092F8D20110B1401E82F8D201284602F098FF204604F006
:2059F00073FFF8BD0C100440502200201B481C4908B54FF48162FFF78FFA4FF004510020A0
:205A100081F89003012081F87903022081F87503032081F87703042081F8AE03052081F83F
:205A3000AB03062081F88103072081F84D03082081F86B03092081F86C030A2081F86D0362
:205A50000B2081F870030C2081F838030D2081F878030448C1F8C00308BDC0461C0400214A
:205A70009CF20000A50600211B481C4908B54FF48162FFF751FA4FF00451002081F8900310
:205A9000012081F87903022081F87503032081F87703042081F8AE03052081F8AB030620F7
:205AB00081F88103072081F84D03082081F86B03092081F86C030A2081F86D030B2081F812
:205AD00070030C2081F838030D2081F878030448C1F8C00308BDC0461C040021A4F60000D4
:205AF000A50600211B481C4908B54FF48162FFF713FA4FF00451002081F89003012081F8C2
:205B10007903022081F87503032081F87703042081F8AE03052081F8AB03062081F8810313
:205B3000072081F84D03082081F86B03092081F86C030A2081F86D030B2081F870030C20EF
:205B500081F838030D2081F878030448C1F8C00308BDC0461C040021ACFA0000A50600211A
:205B70001B481C4908B54FF48162FFF7D5F94FF00451002081F89003012081F879030220AE
:205B900081F87503032081F87703042081F8AE03052081F8AB03062081F88103072081F891
:205BB0004D03082081F86B03092081F86C030A2081F86D030B2081F870030C2081F838035B
:205BD0000D2081F878030448C1F8C00308BDC0461C040021B4FE0000A50600211B481C497A
:205BF00008B54FF48162FFF797F94FF00451002081F89003012081F87903022081F8750343
:205C1000032081F87703042081F8AE03052081F8AB03062081F88103072081F84D03082089
:205C300081F86B03092081F86C030A2081F86D030B2081F870030C2081F838030D2081F8AC
:205C500078030448C1F8C00308BDC0461C040021BC020100A50600211B481C4908B54FF492
:205C70008162FFF759F94FF00451002081F89003012081F87903022081F87503032081F864
:205C90007703042081F8AE03052081F8AB03062081F88103072081F84D03082081F86B03BE
:205CB000092081F86C030A2081F86D030B2081F870030C2081F838030D2081F8780304484C
:205CD000C1F8C00308BDC0461C040021C4060100A50600211B481C4908B54FF48162FFF7F4
:205CF0001BF94FF00451002081F89003012081F87903022081F87503032081F8770304205D
:205D100081F8AE03052081F8AB03062081F88103072081F84D03082081F86B03092081F839
:205D30006C030A2081F86D030B2081F870030C2081F838030D2081F878030448C1F8C003F1
:205D500008BDC0461C040021CC0A0100A50600211B481C4908B54FF48162FFF7DDF84FF0CF
:205D70000451002081F89003012081F87903022081F87503032081F87703042081F8AE0305
:205D9000052081F8AB03062081F88103072081F84D03082081F86B03092081F86C030A204A
:205DB00081F86D030B2081F870030C2081F838030D2081F878030448C1F8C00308BDC0463F
:205DD0001C040021D40E0100A50600211B481C4908B54FF48162FFF79FF84FF004510020D7
:205DF00081F89003012081F87903022081F87503032081F87703042081F8AE03052081F85C
:205E1000AB03062081F88103072081F84D03082081F86B03092081F86C030A2081F86D037E
:205E30000B2081F870030C2081F838030D2081F878030448C1F8C00308BDC0461C04002166
:205E5000DC120100A50600211B481C4908B54FF48162FFF761F84FF00451002081F89003BD
:205E7000012081F87903022081F87503032081F87703042081F8AE03052081F8AB03062013
:205E900081F88103072081F84D03082081F86B03092081F86C030A2081F86D030B2081F82E
:205EB00070030C2081F838030D2081F878030448C1F8C00308BDC0461C040021E41601008F
:205ED000A50600211B481C4908B54FF48162FFF723F84FF00451002081F89003012081F8D0
:205EF0007903022081F87503032081F87703042081F8AE03052081F8AB03062081F8810330
:205F1000072081F84D03082081F86B03092081F86C030A2081F86D030B2081F870030C200B
:205F300081F838030D2081F878030448C1F8C00308BDC0461C040021EC1A0100A5060021D5
:205F50001C491D4880B5352751F8043B51F8042B40F8043B51F8043B40F8042B51F8042BF8
:205F700040F8043B51F8043B40F8042B51F8042B40F8043B51F8043B40F8042B51F8042B55
:205F900040F8043B7F1E40F8042BDDD151F8043B51F8042B40F8043B51F8043B40F8042B62
:205FB00051F8042B40F8043B40F8042B0968016080BDC046E0A8000000C000211C491D4833
:205FD00080B5352751F8043B51F8042B40F8043B51F8043B40F8042B51F8042B40F8043BCB
:205FF00051F8043B40F8042B51F8042B40F8043B51F8043B40F8042B51F8042B40F8043BD5
:206010007F1E40F8042BDDD151F8043B51F8042B40F8043B51F8043B40F8042B51F8042BE0
:2060300040F8043B40F8042B0968016080BDC04694AF000000C000211C491D4880B53527DE
:2060500051F8043B51F8042B40F8043B51F8043B40F8042B51F8042B40F8043B51F8043B53
:2060700040F8042B51F8042B40F8043B51F8043B40F8042B51F8042B40F8043B7F1E40F807
:20609000042BDDD151F8043B51F8042B40F8043B51F8043B40F8042B51F8042B40F8043BBE
:2060B00040F8042B0968016080BDC04648B6000000C000211C491D4880B5352751F8043B92
:2060D00051F8042B40F8043B51F8043B40F8042B51F8042B40F8043B51F8043B40F8042BF4
:2060F00051F8042B40F8043B51F8043B40F8042B51F8042B40F8043B7F1E40F8042BDDD111
:2061100051F8043B51F8042B40F8043B51F8043B40F8042B51F8042B40F8043B40F8042BB3
:206130000968016080BDC046FCBC000000C000211C491D4880B5352751F8043B51F8042B46
:2061500040F8043B51F8043B40F8042B51F8042B40F8043B51F8043B40F8042B51F8042B73
:2061700040F8043B51F8043B40F8042B51F8042B40F8043B7F1E40F8042BDDD151F8043B80
:2061900051F8042B40F8043B51F8043B40F8042B51F8042B40F8043B40F8042B09680160E9
:2061B00080BDC046B0C3000000C000211C491D4880B5352751F8043B51F8042B40F8043B66
:2061D00051F8043B40F8042B51F8042B40F8043B51F8043B40F8042B51F8042B40F8043BF3
:2061F00051F8043B40F8042B51F8042B40F8043B7F1E40F8042BDDD151F8043B51F8042BFF
:2062100040F8043B51F8043B40F8042B51F8042B40F8043B40F8042B0968016080BDC0469D
:2062300064CA000000C000211C491D4880B5352751F8043B51F8042B40F8043B51F8043BE5
:2062500040F8042B51F8042B40F8043B51F8043B40F8042B51F8042B40F8043B51F8043B72
:2062700040F8042B51F8042B40F8043B7F1E40F8042BDDD151F8043B51F8042B40F8043B8F
:2062900051F8043B40F8042B51F8042B40F8043B40F8042B0968016080BDC04618D10000AB
:2062B00000C000211C491D4880B5352751F8043B51F8042B40F8043B51F8043B40F8042B2C
:2062D00051F8042B40F8043B51F8043B40F8042B51F8042B40F8043B51F8043B40F8042BF2
:2062F00051F8042B40F8043B7F1E40F8042BDDD151F8043B51F8042B40F8043B51F8043BEE
:2063100040F8042B51F8042B40F8043B40F8042B0968016080BDC046CCD7000000C0002117
:206330001C491D4880B5352751F8043B51F8042B40F8043B51F8043B40F8042B51F8042B14
:2063500040F8043B51F8043B40F8042B51F8042B40F8043B51F8043B40F8042B51F8042B71
:2063700040F8043B7F1E40F8042BDDD151F8043B51F8042B40F8043B51F8043B40F8042B7E
:2063900051F8042B40F8043B40F8042B0968016080BDC04680DE000000C000211C491D4879
:2063B00080B5352751F8043B51F8042B40F8043B51F8043B40F8042B51F8042B40F8043BE7
:2063D00051F8043B40F8042B51F8042B40F8043B51F8043B40F8042B51F8042B40F8043BF1
:2063F0007F1E40F8042BDDD151F8043B51F8042B40F8043B51F8043B40F8042B51F8042BFD
:2064100040F8043B40F8042B0968016080BDC04634E5000000C000211C491D4880B5352724
:2064300051F8043B51F8042B40F8043B51F8043B40F8042B51F8042B40F8043B51F8043B6F
:2064500040F8042B51F8042B40F8043B51F8043B40F8042B51F8042B40F8043B7F1E40F823
:20647000042BDDD151F8043B51F8042B40F8043B51F8043B40F8042B51F8042B40F8043BDA
:2064900040F8042B0968016080BDC046E8EB000000C00021002213460A46194671B510F06C
:2064B000030F0BD0002A82BF00F8011BB2F1010210F0030FF6D1002A08BF71BD11F0FF01C1
:2064D00041EA0121042A18D341EA0141082A0FD30E46102A08D30C460D46B2F10F0312F000
:2064F0000F0272C0103BFCD812F0080F18BF42C012F0040F18BF40F8041B12F0020F18BF0B
:2065100020F8021B12F0010F18BF017071BD704780B51B491B480F7801780FB3012F05D133
:20653000124A880000EB0110105880BD022F05D10F4A880000EB0110105880BD032F05D135
:206550000C4A880000EB0110105880BD042F05D1094A880000EB0110105880BD002080BDCA
:20657000064A880000EB0110105880BD042F0100D0320100BC320100E4320100902F010095
:20659000823F0020833F002080B51B491B480F7801780FB3012F05D1124A880000EB011084
:2065B000105880BD022F05D10F4A880000EB0110105880BD032F05D10C4A880000EB0110BB
:2065D000105880BD042F05D1094A880000EB0110105880BD002080BD064A880000EB011050
:2065F000105880BD002F0100CC320100B8320100E03201008C2F0100823F0020833F00203A
:2066100010B5044604F017F8401EA042B8BF00202EDB184800EB44004478007828B904F0E0
:2066300006F80021A04222DD1EE0012805D104F000F80021A0421ADD16E0022805D103F07E
:20665000F4FF0021A04212DD0EE0032805D103F0EAFF0021A0420ADD06E0042806D103F0B4
:20667000ECFF0021A04202DD012100E00021084610BDC04680320100F8B50B4601464C694C
:20669000601E024218BF221C651E184610EA05071CBF2044C01B834212D8CF6801F10C0C22
:2066B00077B1531E796803EA070613EA070518BF561B84198C4205D9BC463F68002FF1D122
:2066D0000020F8BD091ABA198D1B3EB98E4204BF3868674608D03968674602E07E6025B1A4
:2066F000396810180160456038601046F8BD7047184870B50068C0F304611629A8BF20395D
:20671000154B187800F01F001628A8BF203881421ED0124E124C0022012532600A1A022AD4
:2067300005DC12F1020FB8BF6FF0010200E002228018226800F01F0242F4F852A3F86620A3
:2067500081422560EAD12068256020683560206870BDC046881300500662084098002043AB
:206770002C20094030B5ADF1240D02A803F0E2FCFFF7CEFE0446FEF733FF02461248214609
:2067900002ABFBF7A7FC114C05462560FEF7A4FE00220146134628468DE80C0000221346B7
:2067B00002F0CEFD2468FEF7D9FE4FF4400200238DE80C00064B014620460022FDF7CAFEAF
:2067D0000449088009B030BD282B0020EC2D002069720000F02D002070B50D462978064605
:2067F000317068787070A878A91CC01DC410A21C062A01DC032A01DA002070BDB01CFEF7B1
:206810008BFB241D0122E0B2327229180A8806F10903C01CC0B21A80295C441CE0B2B173EF
:20683000295C431CD8B2F173295C421CD0B23174295C441CE0B27174295C431CD8B2B1747D
:20685000295C421CD0B2F17470BD70472DE9D841DFF85C801748D8F8806003F07BFD1649BF
:20687000044608680F6800F02000204007F460270DD066B10300C8F888600022304601F0BD
:20689000E9FE08F584704FF4804103F0E6FE17EA04000AD098F8D11141EA504088F8D101D7
:2068B000002108F59E7003F0D8FEBDE8D881C0465022002020000E000C100440034670B541
:2068D0002020EFF3118580F3118818680143164800681960C418C01803F09EFF00BB03F0EF
:2068F000E3FF0646204603F093FF0446A169E269184603F061F8606160B1204603F084FF78
:2069100001202074E06808B103F046F8A068294603F076FF85F31188304603F0B5FF70BD46
:2069300085F3118870BDC0465C3301001949820010B502EB001008310C5803F025FEE17BBE
:2069500041F00101E173E17B21F00201E173A27B012161F34102A273A27B61F38202A273E7
:20697000E27B61F3C302E273E27B61F34512E273E27B61F38612E273E27B61F3C712E27362
:2069900040F2FF722283E27BA06261F30412E27310BDC046F42E010098B5164C94F8E1006F
:2069B000002710B91448007860B103F026FE94F8E310002906BF012184F8E310012703F0C2
:2069D00083FF0FB1002098BD022002F025FA0E20FDF71CFE094A106848B909494020C860DB
:2069F00008600127D761002084F8E20098BD012098BDC046142F00204D32010004800C40BD
:206A10002C500C4038B5014600238A684C7D53801088A0F60200C8B141F21E05401B15D07A
:206A300041F6E675401B012820D8507E012C63F38200507606D0108B20F47C7040F4347056
:206A5000108313E0108B63F30910F9E7507C012C63F38200507405D0108A20F47C7040F47E
:206A7000347002E0108A63F3091010824B7538BDF8B50E46044603F0C0FD0546F0B203F055
:206A900081FB8026071C20D0B87AF0B1124814300078022806D03846FEF76AFF00F024FADE
:206AB000812612E097F909100A4E4FF4A060002200EB012000F47F4046EA0001204602F07F
:206AD00083F806463846FEF753FF284603F0FCFE3046F8BD010008045022002038B50546BD
:206AF00045F24032C020A8700C462A80A01DA5F8030003F0E7FC022803D128190A3003F04A
:206B10000FFB03F0DFFC03280AD003F0DBFC042819BF28190A302819093003F0B9F90AE036
:206B3000B5F80310641EA4B2491E2819A5F803100A3003F0EBFA281944F240510B3003F00D
:206B500017FD204638BD704738B504461748164D143801686868C1F30352C1F30343400836
:206B700012D22868050512EB257203D4102AA8BF0F2200E00022000413EB207303D4102BA1
:206B9000A8BF0F2300E0002343EA021301F47F4201F0FF05222C42EA034245EA020024BF89
:206BB00001F08041084338BDAC3F00508C1300500146184880B53C3800688A0CC0F38367BE
:206BD000C0F38F2022D241F3072100290BD54A420021400805D17F0806BF0127381C4FF612
:206BF000FF70521EF5D1002910DD4FF6FF72400040F00100824207D2780040F001070F2F18
:206C100092BF01200F27101C491EF0D140EA074080BDC0468C130050B0B5184C0546241D70
:206C300020680004070C25D002F026FB124991F90720824205DD10F1800FB8BF6FF07F0006
:206C5000C871BD422CBF01277F1B8D88BD4210D80A68D4F8D40F801A801C1F2888BF1F201F
:206C70007F1B4008C7404FF6FF70EF19B84238BF071C8F80B0BDC046DC2D00203010094017
:206C9000164880B507683FB315498B6803EA5300C00E21D2134A106880081DD2486880081A
:206CB0001AD21068096810F0050F4FEA114101F0F00101F5E0710AD1B9420DD2190F38BF53
:206CD00040F00100D90E38BF40F0040003E0B94202D920F00500106080BDC046285009401F
:206CF000AC3F0050000009402DE9FC41144D2878012823D0002206200321134603F07CFD5F
:206D1000104C0022032113462060062003F074FD03270D49DFF8348008600026CDF8008080
:206D30002068ADF8046069464FF0FF3203F060FD08F616087F1EF1D101202870BDE8FC81ED
:206D5000993F0020D42D0020D82D002008020020F8B5844640F6FF741CF8013B002210E039
:206D7000481B401E10F8015B7F1E01F8015BF9D103E01CF8010B01F8010B521C5B08082A17
:206D9000EADA5808F5D21CF8010B1CF8015B05F00F07FF1CC5F30315122F45EA001508D114
:206DB0001CF8016B300A24BF1CF8010B60F3DF16BF19AC42D4D1F8BD10B5042002F044F986
:206DD000022821D003281FD001281AD011480068C0F38150032805D002280CBF41F2883234
:206DF000322201E04FF47A720B490C4C09684C342046B2FBF1F103F0F4FB204603F0F3FB64
:206E100010BD01F081FC10BD01F07EFC022001F0C1FE10BDB43F0050F82D00201C2F00205D
:206E3000F8B506460D46084603F093FB04463146284603F003F912490A781049012A15D0C3
:206E50000D4A177887B90A78032A0BD04B68E41AFA2C07D8012A03D0022A05D04A7807E014
:206E7000022204E0032202E0012200E000224A700A704860F8BDC046A8360020FC3E0020DF
:206E90007036002038B5012002F0DEF8012820D0114DD5F82401C4681048342101220023BE
:206EB000A047002808BF002014D0286802F070FA02F076FF0B4A0A4D93681168D060C01A6B
:206ED000A1EB910105FB00F3180C884228BF011C1160012038BDC0468000001000A00C4096
:206EF00040420F005C2D0020174838B5017D022926D00446207D012825D0207D042822D09D
:206F100003F07BFB05466846FDF7B8FF80B1009949B904F1900003F068FB04F5847004219B
:206F300003F09BFB08E004F1900003F09DF803E004F1900003F059FB284603F0C5FC38BDFD
:206F5000192003F05EFB38BD50220020F8B500204FF000670C4610401F4008BF002820D0C2
:206F700000F04AF906460F48006848B10F4991F90010A14204D101463046884701F0E2FCC5
:206F9000094D95F90400A04203D1286801463046884795F90C00A04203D1A868014630460A
:206FB0008847F8BDEC3E0020C03E0020E93E0020012898B525D1012002F046F8012820D0B8
:206FD00002F006FF124C012104F1D800017003F07FFA800917D20D4800683222B2FBF0F769
:206FF00007B90F46083C04F1300003F0FEFA04F13000394603F0F5FA04F1300003F0F3FA8D
:2070100001E001F079FD002098BDC046F82D00201C2F002070B50C4600220646142101F0E2
:207030003DFC002530460A21002201F037FCC5F10700092144FA00F2304602F0010201F088
:207050002DFC30460A21012201F028FC082003F0B1FA6D1C082DE5DB30460A21002201F026
:207070001DFC30461421012201F018FC4FF42F7003F0A0FA70BD70472DE9F04143788678C1
:20709000C278DFF850E00479C179DFF83CC0057ADFF83080012743EA062342EA04228EF8B9
:2070B000007041EA0521094EACF80020847AA8F80030074A407A318040EA04201080BDE8D7
:2070D000F081C0467E360020803600208236002084360020863600202DE9FC41144C154FDA
:2070F00006468846700809D320684568002101220B461FFA88F000903846A847B00809D326
:20711000206845680021022201231FFA88F000903846A847F00809D320681FFA88F600211F
:207130000C220223446800963846A047BDE8FC81A401001000A00C401649820010B502EBEF
:20715000001008310C5803F01FFAE17B41F00101E173E17B21F00201E17380212175A27B6B
:20717000012161F34102A273A27B61F38202A273E27B61F3C712E273E27B61F34512E273EB
:20719000E27B61F38612E273E27BE06161F30412E27310BD802F01003EB5401E4FF00004D3
:2071B0000AD0401E04D0401E1DD1FBF73BFA1AE0FFF7F2FB044616E0684603F0C5F920465E
